{
  "contractName": "FlipCoin",
  "abi": [
    {
      "inputs": [],
      "payable": false,
      "stateMutability": "nonpayable",
      "type": "constructor"
    },
    {
      "anonymous": false,
      "inputs": [
        {
          "indexed": false,
          "internalType": "bool",
          "name": "",
          "type": "bool"
        },
        {
          "indexed": false,
          "internalType": "uint256",
          "name": "",
          "type": "uint256"
        }
      ],
      "name": "playerStatus",
      "type": "event"
    },
    {
      "constant": true,
      "inputs": [],
      "name": "message",
      "outputs": [
        {
          "internalType": "string",
          "name": "",
          "type": "string"
        }
      ],
      "payable": false,
      "stateMutability": "view",
      "type": "function"
    },
    {
      "constant": true,
      "inputs": [],
      "name": "owner",
      "outputs": [
        {
          "internalType": "address",
          "name": "",
          "type": "address"
        }
      ],
      "payable": false,
      "stateMutability": "view",
      "type": "function"
    },
    {
      "constant": false,
      "inputs": [
        {
          "internalType": "uint256",
          "name": "coinSide",
          "type": "uint256"
        }
      ],
      "name": "playFlipCoin",
      "outputs": [],
      "payable": true,
      "stateMutability": "payable",
      "type": "function"
    },
    {
      "constant": true,
      "inputs": [],
      "name": "flipCoin",
      "outputs": [
        {
          "internalType": "bool",
          "name": "",
          "type": "bool"
        }
      ],
      "payable": false,
      "stateMutability": "view",
      "type": "function"
    },
    {
      "constant": true,
      "inputs": [],
      "name": "getContractBalance",
      "outputs": [
        {
          "internalType": "uint256",
          "name": "",
          "type": "uint256"
        }
      ],
      "payable": false,
      "stateMutability": "view",
      "type": "function"
    },
    {
      "constant": false,
      "inputs": [],
      "name": "initalDepositToContract",
      "outputs": [],
      "payable": true,
      "stateMutability": "payable",
      "type": "function"
    },
    {
      "constant": false,
      "inputs": [
        {
          "internalType": "address payable",
          "name": "playerAccount",
          "type": "address"
        }
      ],
      "name": "withdrawWinAmount",
      "outputs": [],
      "payable": false,
      "stateMutability": "nonpayable",
      "type": "function"
    },
    {
      "constant": true,
      "inputs": [],
      "name": "getPlayerStatus",
      "outputs": [
        {
          "internalType": "uint256",
          "name": "timesWon",
          "type": "uint256"
        },
        {
          "internalType": "uint256",
          "name": "timesLost",
          "type": "uint256"
        },
        {
          "internalType": "uint256",
          "name": "totalWinAmt",
          "type": "uint256"
        }
      ],
      "payable": false,
      "stateMutability": "view",
      "type": "function"
    },
    {
      "constant": true,
      "inputs": [
        {
          "internalType": "address",
          "name": "playerAddress",
          "type": "address"
        }
      ],
      "name": "exists",
      "outputs": [
        {
          "internalType": "bool",
          "name": "",
          "type": "bool"
        }
      ],
      "payable": false,
      "stateMutability": "view",
      "type": "function"
    }
  ],
  "bytecode": "0x608060405234801561001057600080fd5b50336000806101000a81548173ffffffffffffffffffffffffffffffffffffffff021916908373ffffffffffffffffffffffffffffffffffffffff1602179055506000600181905550610aad806100686000396000f3fe6080604052600436106100865760003560e01c80638da5cb5b116100595780638da5cb5b14610164578063a7b84abc146101bb578063e21f37ce146101f4578063f5d84a3014610284578063f6a3d24e1461028e57610086565b8063270ab0e31461008b57806353ee5f6a146100dc5780636f9fb98a1461010a578063799ae22314610135575b600080fd5b34801561009757600080fd5b506100da600480360360208110156100ae57600080fd5b81019080803573ffffffffffffffffffffffffffffffffffffffff1690602001909291905050506102f7565b005b610108600480360360208110156100f257600080fd5b8101908080359060200190929190505050610396565b005b34801561011657600080fd5b5061011f610555565b6040518082815260200191505060405180910390f35b34801561014157600080fd5b5061014a610574565b604051808215151515815260200191505060405180910390f35b34801561017057600080fd5b50610179610599565b604051808273ffffffffffffffffffffffffffffffffffffffff1673ffffffffffffffffffffffffffffffffffffffff16815260200191505060405180910390f35b3480156101c757600080fd5b506101d06105be565b60405180848152602001838152602001828152602001935050505060405180910390f35b34801561020057600080fd5b5061020961069c565b6040518080602001828103825283818151815260200191508051906020019080838360005b8381101561024957808201518184015260208101905061022e565b50505050905090810190601f1680156102765780820380516001836020036101000a031916815260200191505b509250505060405180910390f35b61028c61073a565b005b34801561029a57600080fd5b506102dd600480360360208110156102b157600080fd5b81019080803573ffffffffffffffffffffffffffffffffffffffff16906020019092919050505061075a565b604051808215151515815260200191505060405180910390f35b600080339050600360008273ffffffffffffffffffffffffffffffffffffffff1673ffffffffffffffffffffffffffffffffffffffff1681526020019081526020016000206002015491508273ffffffffffffffffffffffffffffffffffffffff166108fc839081150290604051600060405180830381858888f19350505050158015610388573d6000803e3d6000fd5b506103916107fc565b505050565b66b1a2bc2ec50000803410156103ab57600080fd5b600034905060008060008034600202600154116103c757600080fd5b6103cf610a57565b6103d83361075a565b61044c576103e5816108dc565b60043390806001815401808255809150509060018203906000526020600020016000909192909190916101000a81548173ffffffffffffffffffffffffffffffffffffffff021916908373ffffffffffffffffffffffffffffffffffffffff160217905550505b600188141561045e5760019350610463565b600093505b61046b610574565b945083151585151514156104e557600192508560020291508160016000828254039250508190555061049d8383610946565b7f918e5a0e80d386e4b3b113f7d92d085e0b563b23e9887ba8f6127475a882d521838360405180831515151581526020018281526020019250505060405180910390a161054b565b6000925060009150856001600082825401925050819055506105078383610946565b7f918e5a0e80d386e4b3b113f7d92d085e0b563b23e9887ba8f6127475a882d521838360405180831515151581526020018281526020019250505060405180910390a15b5050505050505050565b60003073ffffffffffffffffffffffffffffffffffffffff1631905090565b6000806002428161058157fe5b0614156105915760019050610596565b600090505b90565b6000809054906101000a900473ffffffffffffffffffffffffffffffffffffffff1681565b600080600080339050600360008273ffffffffffffffffffffffffffffffffffffffff1673ffffffffffffffffffffffffffffffffffffffff16815260200190815260200160002060000154600360008373ffffffffffffffffffffffffffffffffffffffff1673ffffffffffffffffffffffffffffffffffffffff16815260200190815260200160002060010154600360008473ffffffffffffffffffffffffffffffffffffffff1673ffffffffffffffffffffffffffffffffffffffff1681526020019081526020016000206002015493509350935050909192565b60028054600181600116156101000203166002900480601f0160208091040260200160405190810160405280929190818152602001828054600181600116156101000203166002900480156107325780601f1061070757610100808354040283529160200191610732565b820191906000526020600020905b81548152906001019060200180831161071557829003601f168201915b505050505081565b3073ffffffffffffffffffffffffffffffffffffffff1631600181905550565b600080600090505b6004805490508110156107f1578273ffffffffffffffffffffffffffffffffffffffff166004828154811061079357fe5b9060005260206000200160009054906101000a900473ffffffffffffffffffffffffffffffffffffffff1673ffffffffffffffffffffffffffffffffffffffff1614156107e45760019150506107f7565b8080600101915050610762565b60009150505b919050565b60003390506000600360008373ffffffffffffffffffffffffffffffffffffffff1673ffffffffffffffffffffffffffffffffffffffff168152602001908152602001600020600001819055506000600360008373ffffffffffffffffffffffffffffffffffffffff1673ffffffffffffffffffffffffffffffffffffffff168152602001908152602001600020600201819055506000600360008373ffffffffffffffffffffffffffffffffffffffff1673ffffffffffffffffffffffffffffffffffffffff1681526020019081526020016000206001018190555050565b600033905081600360008373ffffffffffffffffffffffffffffffffffffffff1673ffffffffffffffffffffffffffffffffffffffff1681526020019081526020016000206000820151816000015560208201518160010155604082015181600201559050505050565b60003390506001151583151514156109ff57600360008273ffffffffffffffffffffffffffffffffffffffff1673ffffffffffffffffffffffffffffffffffffffff1681526020019081526020016000206000016000815480929190600101919050555081600360008373ffffffffffffffffffffffffffffffffffffffff1673ffffffffffffffffffffffffffffffffffffffff16815260200190815260200160002060020160008282540192505081905550610a52565b600360008273ffffffffffffffffffffffffffffffffffffffff1673ffffffffffffffffffffffffffffffffffffffff168152602001908152602001600020600101600081548092919060010191905055505b505050565b6040518060600160405280600081526020016000815260200160008152509056fea265627a7a723158208048b0aac9355f59ab98fbda1e145a3fc425b5e15d4a2bedf5f53ad22625407a64736f6c634300050c0032",
  "source": "pragma solidity 0.5.12;\r\nimport \"./Ownable.sol\";\r\n\r\n\r\ncontract FlipCoin is Ownable{\r\n\r\n    uint256 contractBalance;\r\n    string public message;\r\n    event playerStatus(bool, uint);\r\n\r\n    constructor() public{\r\n        contractBalance = 0;\r\n    }\r\n\r\n    struct Player{\r\n        uint countWin;\r\n        uint countLost;\r\n        uint sumWin;\r\n    }\r\n\r\n    mapping (address => Player) private players;\r\n    address[] private creators;\r\n\r\n    modifier costs(uint cost){\r\n        require(msg.value >= cost);\r\n        _;\r\n    }\r\n\r\n    function playFlipCoin(uint coinSide) public payable costs(.05 ether){\r\n        uint userPlayAmount = msg.value;\r\n        bool result;\r\n        bool side;\r\n        bool playerWon;\r\n        uint winAmount;\r\n\r\n        require (contractBalance > 2*msg.value);\r\n\r\n        Player memory newPlayer;\r\n\r\n        if(!exists(msg.sender)){\r\n            insertPlayer(newPlayer);\r\n            creators.push(msg.sender);\r\n        }\r\n\r\n\r\n        if (coinSide == 1){\r\n            side = true;\r\n        }\r\n        else{\r\n            side = false;\r\n        }\r\n        result = flipCoin();\r\n        if (result == side){\r\n            playerWon = true;\r\n            winAmount = 2*userPlayAmount;\r\n            contractBalance -= winAmount;\r\n            updatePlayerStatus(playerWon, winAmount);\r\n            emit playerStatus(playerWon, winAmount);\r\n        }\r\n        else{\r\n            playerWon = false;\r\n            winAmount = 0;\r\n            contractBalance += userPlayAmount;\r\n            updatePlayerStatus(playerWon, winAmount);\r\n            emit playerStatus(playerWon, winAmount);\r\n         }\r\n    }\r\n\r\n    function flipCoin() public view returns (bool){\r\n\r\n        if (now % 2 == 0){\r\n            return true;\r\n        }\r\n        else{\r\n            return false;\r\n        }\r\n    }\r\n\r\n    function getContractBalance() public view returns (uint){\r\n        return address(this).balance;\r\n    }\r\n\r\n    function initalDepositToContract() public payable{\r\n        contractBalance = address(this).balance;\r\n    }\r\n\r\n    function withdrawWinAmount(address payable playerAccount) public {\r\n        uint toTransfer;\r\n        address creator = msg.sender;\r\n\r\n        toTransfer = players[creator].sumWin;\r\n\r\n        playerAccount.transfer(toTransfer);\r\n        resetPlayerStatus();\r\n    }\r\n\r\n    function insertPlayer(Player memory newPlayer) private {\r\n        address creator = msg.sender;\r\n        players[creator] = newPlayer;\r\n    }\r\n\r\n    function getPlayerStatus() public view returns(uint timesWon, uint timesLost, uint totalWinAmt){\r\n        address creator = msg.sender;\r\n        return (players[creator].countWin, players[creator].countLost, players[creator].sumWin);\r\n    }\r\n    function updatePlayerStatus(bool winResult, uint winAmount) internal {\r\n        address creator = msg.sender;\r\n\r\n        if (winResult == true){\r\n            players[creator].countWin++;\r\n            players[creator].sumWin += winAmount;\r\n        }\r\n        else{\r\n            players[creator].countLost++;\r\n        }\r\n    }\r\n\r\n    function resetPlayerStatus() internal {\r\n        address creator = msg.sender;\r\n\r\n            players[creator].countWin = 0;\r\n            players[creator].sumWin = 0;\r\n            players[creator].countLost = 0;\r\n\r\n    }\r\n\r\n    function exists(address playerAddress) public view returns (bool) {\r\n        uint i;\r\n\r\n\t    for (i = 0; i < creators.length; i++) {\r\n                if (creators[i] == playerAddress) {\r\n\t                 return true;\r\n                }\r\n        }\r\n        return false;\r\n    }\r\n}\r\n",
  "sourcePath": "C:/Users/multi/documents/course/flipcoin/contracts/Flipcoin.sol",
  "compiler": {
    "name": "solc",
    "version": "0.5.12+commit.7709ece9.Emscripten.clang"
  },
  "schemaVersion": "3.0.16",
  "updatedAt": "2020-12-20T00:24:13.884Z",
  "devdoc": {
    "methods": {}
  },
  "userdoc": {
    "methods": {}
  }
}