{
  "contractName": "FlipCoin",
  "abi": [
    {
      "inputs": [],
      "payable": false,
      "stateMutability": "nonpayable",
      "type": "constructor"
    },
    {
      "anonymous": false,
      "inputs": [
        {
          "indexed": false,
          "internalType": "bool",
          "name": "",
          "type": "bool"
        },
        {
          "indexed": false,
          "internalType": "uint256",
          "name": "",
          "type": "uint256"
        }
      ],
      "name": "playerStatus",
      "type": "event"
    },
    {
      "constant": true,
      "inputs": [],
      "name": "message",
      "outputs": [
        {
          "internalType": "string",
          "name": "",
          "type": "string"
        }
      ],
      "payable": false,
      "stateMutability": "view",
      "type": "function"
    },
    {
      "constant": true,
      "inputs": [],
      "name": "owner",
      "outputs": [
        {
          "internalType": "address",
          "name": "",
          "type": "address"
        }
      ],
      "payable": false,
      "stateMutability": "view",
      "type": "function"
    },
    {
      "constant": false,
      "inputs": [
        {
          "internalType": "uint256",
          "name": "coinSide",
          "type": "uint256"
        }
      ],
      "name": "playFlipCoin",
      "outputs": [],
      "payable": true,
      "stateMutability": "payable",
      "type": "function"
    },
    {
      "constant": true,
      "inputs": [],
      "name": "flipCoin",
      "outputs": [
        {
          "internalType": "bool",
          "name": "",
          "type": "bool"
        }
      ],
      "payable": false,
      "stateMutability": "view",
      "type": "function"
    },
    {
      "constant": true,
      "inputs": [],
      "name": "getContractBalance",
      "outputs": [
        {
          "internalType": "uint256",
          "name": "",
          "type": "uint256"
        }
      ],
      "payable": false,
      "stateMutability": "view",
      "type": "function"
    },
    {
      "constant": false,
      "inputs": [],
      "name": "initalDepositToContract",
      "outputs": [],
      "payable": true,
      "stateMutability": "payable",
      "type": "function"
    },
    {
      "constant": false,
      "inputs": [
        {
          "internalType": "address payable",
          "name": "playerAccount",
          "type": "address"
        },
        {
          "internalType": "uint256",
          "name": "winAmount",
          "type": "uint256"
        }
      ],
      "name": "withdrawWinAmount",
      "outputs": [],
      "payable": false,
      "stateMutability": "nonpayable",
      "type": "function"
    },
    {
      "constant": true,
      "inputs": [],
      "name": "getPlayerStatus",
      "outputs": [
        {
          "internalType": "uint256",
          "name": "timesWon",
          "type": "uint256"
        },
        {
          "internalType": "uint256",
          "name": "timesLost",
          "type": "uint256"
        },
        {
          "internalType": "uint256",
          "name": "totalWinAmt",
          "type": "uint256"
        }
      ],
      "payable": false,
      "stateMutability": "view",
      "type": "function"
    },
    {
      "constant": true,
      "inputs": [
        {
          "internalType": "address",
          "name": "playerAddress",
          "type": "address"
        }
      ],
      "name": "exists",
      "outputs": [
        {
          "internalType": "bool",
          "name": "",
          "type": "bool"
        }
      ],
      "payable": false,
      "stateMutability": "view",
      "type": "function"
    }
  ],
  "bytecode": "0x608060405234801561001057600080fd5b50336000806101000a81548173ffffffffffffffffffffffffffffffffffffffff021916908373ffffffffffffffffffffffffffffffffffffffff1602179055506000809054906101000a900473ffffffffffffffffffffffffffffffffffffffff1673ffffffffffffffffffffffffffffffffffffffff1631600181905550610a4d8061009f6000396000f3fe6080604052600436106100865760003560e01c8063a7b84abc11610059578063a7b84abc1461016a578063d481b093146101a3578063e21f37ce146101fe578063f5d84a301461028e578063f6a3d24e1461029857610086565b806353ee5f6a1461008b5780636f9fb98a146100b9578063799ae223146100e45780638da5cb5b14610113575b600080fd5b6100b7600480360360208110156100a157600080fd5b8101908080359060200190929190505050610301565b005b3480156100c557600080fd5b506100ce6104c0565b6040518082815260200191505060405180910390f35b3480156100f057600080fd5b506100f96104df565b604051808215151515815260200191505060405180910390f35b34801561011f57600080fd5b50610128610504565b604051808273ffffffffffffffffffffffffffffffffffffffff1673ffffffffffffffffffffffffffffffffffffffff16815260200191505060405180910390f35b34801561017657600080fd5b5061017f610529565b60405180848152602001838152602001828152602001935050505060405180910390f35b3480156101af57600080fd5b506101fc600480360360408110156101c657600080fd5b81019080803573ffffffffffffffffffffffffffffffffffffffff16906020019092919080359060200190929190505050610607565b005b34801561020a57600080fd5b5061021361065a565b6040518080602001828103825283818151815260200191508051906020019080838360005b83811015610253578082015181840152602081019050610238565b50505050905090810190601f1680156102805780820380516001836020036101000a031916815260200191505b509250505060405180910390f35b6102966106f8565b005b3480156102a457600080fd5b506102e7600480360360208110156102bb57600080fd5b81019080803573ffffffffffffffffffffffffffffffffffffffff1690602001909291905050506106fa565b604051808215151515815260200191505060405180910390f35b66b1a2bc2ec500008034101561031657600080fd5b6000349050600080600080346002026001541161033257600080fd5b61033a6109f7565b610343336106fa565b6103b7576103508161079c565b60043390806001815401808255809150509060018203906000526020600020016000909192909190916101000a81548173ffffffffffffffffffffffffffffffffffffffff021916908373ffffffffffffffffffffffffffffffffffffffff160217905550505b60018814156103c957600193506103ce565b600093505b6103d66104df565b945083151585151514156104505760019250856002029150816001600082825403925050819055506104088383610806565b7f918e5a0e80d386e4b3b113f7d92d085e0b563b23e9887ba8f6127475a882d521838360405180831515151581526020018281526020019250505060405180910390a16104b6565b6000925060009150856001600082825401925050819055506104728383610806565b7f918e5a0e80d386e4b3b113f7d92d085e0b563b23e9887ba8f6127475a882d521838360405180831515151581526020018281526020019250505060405180910390a15b5050505050505050565b60003073ffffffffffffffffffffffffffffffffffffffff1631905090565b600080600242816104ec57fe5b0614156104fc5760019050610501565b600090505b90565b6000809054906101000a900473ffffffffffffffffffffffffffffffffffffffff1681565b600080600080339050600360008273ffffffffffffffffffffffffffffffffffffffff1673ffffffffffffffffffffffffffffffffffffffff16815260200190815260200160002060000154600360008373ffffffffffffffffffffffffffffffffffffffff1673ffffffffffffffffffffffffffffffffffffffff16815260200190815260200160002060010154600360008473ffffffffffffffffffffffffffffffffffffffff1673ffffffffffffffffffffffffffffffffffffffff1681526020019081526020016000206002015493509350935050909192565b8173ffffffffffffffffffffffffffffffffffffffff166108fc829081150290604051600060405180830381858888f1935050505015801561064d573d6000803e3d6000fd5b50610656610917565b5050565b60028054600181600116156101000203166002900480601f0160208091040260200160405190810160405280929190818152602001828054600181600116156101000203166002900480156106f05780601f106106c5576101008083540402835291602001916106f0565b820191906000526020600020905b8154815290600101906020018083116106d357829003601f168201915b505050505081565b565b600080600090505b600480549050811015610791578273ffffffffffffffffffffffffffffffffffffffff166004828154811061073357fe5b9060005260206000200160009054906101000a900473ffffffffffffffffffffffffffffffffffffffff1673ffffffffffffffffffffffffffffffffffffffff161415610784576001915050610797565b8080600101915050610702565b60009150505b919050565b600033905081600360008373ffffffffffffffffffffffffffffffffffffffff1673ffffffffffffffffffffffffffffffffffffffff1681526020019081526020016000206000820151816000015560208201518160010155604082015181600201559050505050565b60003390506001151583151514156108bf57600360008273ffffffffffffffffffffffffffffffffffffffff1673ffffffffffffffffffffffffffffffffffffffff1681526020019081526020016000206000016000815480929190600101919050555081600360008373ffffffffffffffffffffffffffffffffffffffff1673ffffffffffffffffffffffffffffffffffffffff16815260200190815260200160002060020160008282540192505081905550610912565b600360008273ffffffffffffffffffffffffffffffffffffffff1673ffffffffffffffffffffffffffffffffffffffff168152602001908152602001600020600101600081548092919060010191905055505b505050565b60003390506000600360008373ffffffffffffffffffffffffffffffffffffffff1673ffffffffffffffffffffffffffffffffffffffff168152602001908152602001600020600001819055506000600360008373ffffffffffffffffffffffffffffffffffffffff1673ffffffffffffffffffffffffffffffffffffffff168152602001908152602001600020600201819055506000600360008373ffffffffffffffffffffffffffffffffffffffff1673ffffffffffffffffffffffffffffffffffffffff1681526020019081526020016000206001018190555050565b6040518060600160405280600081526020016000815260200160008152509056fea265627a7a72315820324334b2eea9147bf81521400984cfd8a5156bbd1619775af50cdffde844cb4064736f6c634300050c0032",
  "source": "pragma solidity 0.5.12;\r\nimport \"./Ownable.sol\";\r\n\r\n//contract updted 21/11/20\r\ncontract FlipCoin is Ownable{\r\n\r\n    //state variables\r\n    uint256 contractBalance;\r\n    string public message;\r\n    event playerStatus(bool, uint);\r\n\r\n    constructor() public{\r\n        contractBalance = owner.balance;\r\n    }\r\n\r\n    struct Player{\r\n        uint countWin;\r\n        uint countLost;\r\n        uint sumWin;\r\n    }\r\n\r\n    mapping (address => Player) private players;\r\n    address[] private creators;\r\n\r\n    modifier costs(uint cost){\r\n        require(msg.value >= cost);\r\n        _;\r\n    }\r\n\r\n    function playFlipCoin(uint coinSide) public payable costs(.05 ether){\r\n        uint userPlayAmount = msg.value;\r\n        bool result;\r\n        bool side;\r\n        bool playerWon;\r\n        uint winAmount;\r\n\r\n        require (contractBalance > 2*msg.value);\r\n\r\n        Player memory newPlayer;\r\n\r\n        if(!exists(msg.sender)){\r\n            insertPlayer(newPlayer);\r\n            creators.push(msg.sender);\r\n        }\r\n\r\n\r\n        if (coinSide == 1){\r\n            side = true;\r\n        }\r\n        else{\r\n            side = false;\r\n        }\r\n        result = flipCoin();\r\n        if (result == side){\r\n            playerWon = true;\r\n            winAmount = 2*userPlayAmount;\r\n            contractBalance -= winAmount;\r\n            updatePlayerStatus(playerWon, winAmount);\r\n            emit playerStatus(playerWon, winAmount);\r\n        }\r\n        else{\r\n            playerWon = false;\r\n            winAmount = 0;\r\n            contractBalance += userPlayAmount;\r\n            updatePlayerStatus(playerWon, winAmount);\r\n            emit playerStatus(playerWon, winAmount);\r\n         }\r\n    }\r\n\r\n    function flipCoin() public view returns (bool){\r\n\r\n        if (now % 2 == 0){\r\n            return true;\r\n        }\r\n        else{\r\n            return false;\r\n        }\r\n    }\r\n\r\n    function getContractBalance() public view returns (uint){\r\n        return address(this).balance;\r\n    }\r\n\r\n    function initalDepositToContract() public payable{\r\n    }\r\n\r\n    function withdrawWinAmount(address payable playerAccount, uint winAmount) public {\r\n        //player withdraws win amount;\r\n        playerAccount.transfer(winAmount);\r\n        resetPlayerStatus();\r\n    }\r\n\r\n    function insertPlayer(Player memory newPlayer) private {\r\n        address creator = msg.sender;\r\n        players[creator] = newPlayer;\r\n    }\r\n\r\n    function getPlayerStatus() public view returns(uint timesWon, uint timesLost, uint totalWinAmt){\r\n        address creator = msg.sender;\r\n        return (players[creator].countWin, players[creator].countLost, players[creator].sumWin);\r\n    }\r\n    function updatePlayerStatus(bool winResult, uint winAmount) internal {\r\n        address creator = msg.sender;\r\n\r\n        if (winResult == true){\r\n            players[creator].countWin++;\r\n            players[creator].sumWin += winAmount;\r\n        }\r\n        else{\r\n            players[creator].countLost++;\r\n        }\r\n    }\r\n\r\n    function resetPlayerStatus() internal {\r\n        address creator = msg.sender;\r\n\r\n            players[creator].countWin = 0;\r\n            players[creator].sumWin = 0;\r\n            players[creator].countLost = 0;\r\n\r\n    }\r\n\r\n    function exists(address playerAddress) public view returns (bool) {\r\n        uint i;\r\n\r\n\t    for (i = 0; i < creators.length; i++) {\r\n                if (creators[i] == playerAddress) {\r\n\t                 return true;\r\n                }\r\n        }\r\n        return false;\r\n    }\r\n}\r\n",
  "sourcePath": "C:/Users/multi/documents/course/flipcoin/contracts/Flipcoin.sol",
  "compiler": {
    "name": "solc",
    "version": "0.5.12+commit.7709ece9.Emscripten.clang"
  },
  "schemaVersion": "3.0.16",
  "updatedAt": "2020-12-19T05:39:25.452Z",
  "devdoc": {
    "methods": {}
  },
  "userdoc": {
    "methods": {}
  }
}